{"abi":[{"type":"constructor","inputs":[{"name":"_chainId","type":"uint256","internalType":"uint256"},{"name":"_requiredSignatures","type":"uint256","internalType":"uint256"},{"name":"_isOriginChain","type":"bool","internalType":"bool"}],"stateMutability":"nonpayable"},{"type":"function","name":"MAX_VALIDATORS","inputs":[],"outputs":[{"name":"","type":"uint256","internalType":"uint256"}],"stateMutability":"view"},{"type":"function","name":"MIN_VALIDATORS","inputs":[],"outputs":[{"name":"","type":"uint256","internalType":"uint256"}],"stateMutability":"view"},{"type":"function","name":"addValidator","inputs":[{"name":"validator","type":"address","internalType":"address"}],"outputs":[],"stateMutability":"nonpayable"},{"type":"function","name":"chainId","inputs":[],"outputs":[{"name":"","type":"uint256","internalType":"uint256"}],"stateMutability":"view"},{"type":"function","name":"completeBridgeTransfer","inputs":[{"name":"token","type":"address","internalType":"address"},{"name":"user","type":"address","internalType":"address"},{"name":"amount","type":"uint256","internalType":"uint256"},{"name":"transactionId","type":"bytes32","internalType":"bytes32"},{"name":"signatures","type":"bytes[]","internalType":"bytes[]"}],"outputs":[],"stateMutability":"nonpayable"},{"type":"function","name":"getLockedBalance","inputs":[{"name":"token","type":"address","internalType":"address"}],"outputs":[{"name":"","type":"uint256","internalType":"uint256"}],"stateMutability":"view"},{"type":"function","name":"getUserNonce","inputs":[{"name":"user","type":"address","internalType":"address"}],"outputs":[{"name":"","type":"uint256","internalType":"uint256"}],"stateMutability":"view"},{"type":"function","name":"handleBurn","inputs":[{"name":"originalToken","type":"address","internalType":"address"},{"name":"user","type":"address","internalType":"address"},{"name":"amount","type":"uint256","internalType":"uint256"},{"name":"destinationChainId","type":"uint256","internalType":"uint256"},{"name":"destinationAddress","type":"address","internalType":"address"}],"outputs":[],"stateMutability":"nonpayable"},{"type":"function","name":"isOriginChain","inputs":[],"outputs":[{"name":"","type":"bool","internalType":"bool"}],"stateMutability":"view"},{"type":"function","name":"isTransactionProcessed","inputs":[{"name":"transactionId","type":"bytes32","internalType":"bytes32"}],"outputs":[{"name":"","type":"bool","internalType":"bool"}],"stateMutability":"view"},{"type":"function","name":"isValidator","inputs":[{"name":"account","type":"address","internalType":"address"}],"outputs":[{"name":"","type":"bool","internalType":"bool"}],"stateMutability":"view"},{"type":"function","name":"lockTokens","inputs":[{"name":"token","type":"address","internalType":"address"},{"name":"amount","type":"uint256","internalType":"uint256"},{"name":"destinationChainId","type":"uint256","internalType":"uint256"},{"name":"destinationAddress","type":"address","internalType":"address"}],"outputs":[],"stateMutability":"nonpayable"},{"type":"function","name":"lockedBalances","inputs":[{"name":"","type":"address","internalType":"address"}],"outputs":[{"name":"","type":"uint256","internalType":"uint256"}],"stateMutability":"view"},{"type":"function","name":"nonces","inputs":[{"name":"","type":"address","internalType":"address"}],"outputs":[{"name":"","type":"uint256","internalType":"uint256"}],"stateMutability":"view"},{"type":"function","name":"owner","inputs":[],"outputs":[{"name":"","type":"address","internalType":"address"}],"stateMutability":"view"},{"type":"function","name":"processedTransactions","inputs":[{"name":"","type":"bytes32","internalType":"bytes32"}],"outputs":[{"name":"","type":"bool","internalType":"bool"}],"stateMutability":"view"},{"type":"function","name":"removeValidator","inputs":[{"name":"validator","type":"address","internalType":"address"}],"outputs":[],"stateMutability":"nonpayable"},{"type":"function","name":"requiredSignatures","inputs":[],"outputs":[{"name":"","type":"uint256","internalType":"uint256"}],"stateMutability":"view"},{"type":"function","name":"setRequiredSignatures","inputs":[{"name":"_requiredSignatures","type":"uint256","internalType":"uint256"}],"outputs":[],"stateMutability":"nonpayable"},{"type":"function","name":"setWrappedToken","inputs":[{"name":"originalToken","type":"address","internalType":"address"},{"name":"wrappedToken","type":"address","internalType":"address"}],"outputs":[],"stateMutability":"nonpayable"},{"type":"function","name":"validatorCount","inputs":[],"outputs":[{"name":"","type":"uint256","internalType":"uint256"}],"stateMutability":"view"},{"type":"function","name":"validators","inputs":[{"name":"","type":"address","internalType":"address"}],"outputs":[{"name":"","type":"bool","internalType":"bool"}],"stateMutability":"view"},{"type":"function","name":"wrappedTokens","inputs":[{"name":"","type":"address","internalType":"address"}],"outputs":[{"name":"","type":"address","internalType":"address"}],"stateMutability":"view"},{"type":"event","name":"RequiredSignaturesChanged","inputs":[{"name":"oldRequired","type":"uint256","indexed":false,"internalType":"uint256"},{"name":"newRequired","type":"uint256","indexed":false,"internalType":"uint256"}],"anonymous":false},{"type":"event","name":"TokensLocked","inputs":[{"name":"token","type":"address","indexed":true,"internalType":"address"},{"name":"user","type":"address","indexed":true,"internalType":"address"},{"name":"amount","type":"uint256","indexed":false,"internalType":"uint256"},{"name":"destinationChainId","type":"uint256","indexed":false,"internalType":"uint256"},{"name":"destinationAddress","type":"address","indexed":false,"internalType":"address"},{"name":"nonce","type":"uint256","indexed":false,"internalType":"uint256"}],"anonymous":false},{"type":"event","name":"TokensMinted","inputs":[{"name":"token","type":"address","indexed":true,"internalType":"address"},{"name":"user","type":"address","indexed":true,"internalType":"address"},{"name":"amount","type":"uint256","indexed":false,"internalType":"uint256"},{"name":"transactionId","type":"bytes32","indexed":true,"internalType":"bytes32"}],"anonymous":false},{"type":"event","name":"TokensUnlocked","inputs":[{"name":"token","type":"address","indexed":true,"internalType":"address"},{"name":"user","type":"address","indexed":true,"internalType":"address"},{"name":"amount","type":"uint256","indexed":false,"internalType":"uint256"},{"name":"transactionId","type":"bytes32","indexed":true,"internalType":"bytes32"}],"anonymous":false},{"type":"event","name":"ValidatorAdded","inputs":[{"name":"validator","type":"address","indexed":true,"internalType":"address"}],"anonymous":false},{"type":"event","name":"ValidatorRemoved","inputs":[{"name":"validator","type":"address","indexed":true,"internalType":"address"}],"anonymous":false},{"type":"event","name":"WrappedTokenSet","inputs":[{"name":"originalToken","type":"address","indexed":true,"internalType":"address"},{"name":"wrappedToken","type":"address","indexed":true,"internalType":"address"}],"anonymous":false}],"bytecode":{"object":"0x608060405234801561000f575f5ffd5b5060405161343a38038061343a8339818101604052810190610031919061010d565b82600581905550816002819055508060065f6101000a81548160ff02191690831515021790555033600660016101000a81548173ffffffffffffffffffffffffffffffffffffffff021916908373ffffffffffffffffffffffffffffffffffffffff16021790555050505061015d565b5f5ffd5b5f819050919050565b6100b7816100a5565b81146100c1575f5ffd5b50565b5f815190506100d2816100ae565b92915050565b5f8115159050919050565b6100ec816100d8565b81146100f6575f5ffd5b50565b5f81519050610107816100e3565b92915050565b5f5f5f60608486031215610124576101236100a1565b5b5f610131868287016100c4565b9350506020610142868287016100c4565b9250506040610153868287016100f9565b9150509250925092565b6132d08061016a5f395ff3fe608060405234801561000f575f5ffd5b506004361061014b575f3560e01c80637d2b9cc0116100c1578063b61e10141161007a578063b61e101414610387578063c4086893146103a5578063d5c6b504146103d5578063efc646ca14610405578063fa52c7d814610435578063facd743b146104655761014b565b80637d2b9cc0146102b15780637ecebe00146102cd5780638d068043146102fd5780638da5cb5b1461031b5780639a8a059214610339578063ac2e4936146103575761014b565b80631ee0a6ed116101135780631ee0a6ed146101f157806340a141ff1461020d5780634d238c8e146102295780635ed1f963146102455780636834e3a814610263578063714897df146102935761014b565b80630354aa6b1461014f5780630483a7f61461016b5780630aa393f31461019b5780630c1973d6146101b75780630f43a677146101d3575b5f5ffd5b6101696004803603810190610164919061202d565b610495565b005b610185600480360381019061018091906120c3565b610ae3565b60405161019291906120fd565b60405180910390f35b6101b560048036038101906101b09190612116565b610af8565b005b6101d160048036038101906101cc919061217a565b610ecc565b005b6101db611160565b6040516101e891906120fd565b60405180910390f35b61020b600480360381019061020691906121b8565b611166565b005b610227600480360381019061022291906120c3565b61138a565b005b610243600480360381019061023e91906120c3565b6115e8565b005b61024d611865565b60405161025a91906120fd565b60405180910390f35b61027d600480360381019061027891906120c3565b61186a565b60405161028a91906120fd565b60405180910390f35b61029b6118b0565b6040516102a891906120fd565b60405180910390f35b6102cb60048036038101906102c6919061222f565b6118b5565b005b6102e760048036038101906102e291906120c3565b611a16565b6040516102f491906120fd565b60405180910390f35b610305611a2b565b60405161031291906120fd565b60405180910390f35b610323611a31565b6040516103309190612269565b60405180910390f35b610341611a57565b60405161034e91906120fd565b60405180910390f35b610371600480360381019061036c9190612282565b611a5d565b60405161037e91906122c7565b60405180910390f35b61038f611a7a565b60405161039c91906122c7565b60405180910390f35b6103bf60048036038101906103ba91906120c3565b611a8c565b6040516103cc91906120fd565b60405180910390f35b6103ef60048036038101906103ea91906120c3565b611ad2565b6040516103fc9190612269565b60405180910390f35b61041f600480360381019061041a9190612282565b611b02565b60405161042c91906122c7565b60405180910390f35b61044f600480360381019061044a91906120c3565b611b28565b60405161045c91906122c7565b60405180910390f35b61047f600480360381019061047a91906120c3565b611b44565b60405161048c91906122c7565b60405180910390f35b60035f8481526020019081526020015f205f9054906101000a900460ff16156104f3576040517f08c379a00000000000000000000000000000000000000000000000000000000081526004016104ea9061233a565b60405180910390fd5b60025482829050101561053b576040517f08c379a0000000000000000000000000000000000000000000000000000000008152600401610532906123a2565b60405180910390fd5b5f86868686600554604051602001610557959493929190612445565b60405160208183030381529060405280519060200120905061057a818484611b95565b6105b9576040517f08c379a00000000000000000000000000000000000000000000000000000000081526004016105b0906124ed565b60405180910390fd5b600160035f8681526020019081526020015f205f6101000a81548160ff02191690831515021790555060065f9054906101000a900460ff161561086c578460075f8973ffffffffffffffffffffffffffffffffffffffff1673ffffffffffffffffffffffffffffffffffffffff1681526020019081526020015f20541015610676576040517f08c379a000000000000000000000000000000000000000000000000000000000815260040161066d90612555565b60405180910390fd5b8460075f8973ffffffffffffffffffffffffffffffffffffffff1673ffffffffffffffffffffffffffffffffffffffff1681526020019081526020015f205f8282546106c291906125a0565b925050819055505f8773ffffffffffffffffffffffffffffffffffffffff1687876040516024016106f49291906125d3565b6040516020818303038152906040527fa9059cbb000000000000000000000000000000000000000000000000000000007bffffffffffffffffffffffffffffffffffffffffffffffffffffffff19166020820180517bffffffffffffffffffffffffffffffffffffffffffffffffffffffff838183161783525050505060405161077e919061264c565b5f604051808303815f865af19150503d805f81146107b7576040519150601f19603f3d011682016040523d82523d5f602084013e6107bc565b606091505b5050905080610800576040517f08c379a00000000000000000000000000000000000000000000000000000000081526004016107f7906126ac565b60405180910390fd5b848773ffffffffffffffffffffffffffffffffffffffff168973ffffffffffffffffffffffffffffffffffffffff167fc24528373542ee9723afbd28e392c80d637cad2d28d9034600064379224c44058960405161085e91906120fd565b60405180910390a450610ada565b5f60085f8973ffffffffffffffffffffffffffffffffffffffff1673ffffffffffffffffffffffffffffffffffffffff1681526020019081526020015f205f9054906101000a900473ffffffffffffffffffffffffffffffffffffffff1690505f73ffffffffffffffffffffffffffffffffffffffff168173ffffffffffffffffffffffffffffffffffffffff160361093a576040517f08c379a000000000000000000000000000000000000000000000000000000000815260040161093190612714565b60405180910390fd5b5f8173ffffffffffffffffffffffffffffffffffffffff1688886040516024016109659291906125d3565b6040516020818303038152906040527f40c10f19000000000000000000000000000000000000000000000000000000007bffffffffffffffffffffffffffffffffffffffffffffffffffffffff19166020820180517bffffffffffffffffffffffffffffffffffffffffffffffffffffffff83818316178352505050506040516109ef919061264c565b5f604051808303815f865af19150503d805f8114610a28576040519150601f19603f3d011682016040523d82523d5f602084013e610a2d565b606091505b5050905080610a71576040517f08c379a0000000000000000000000000000000000000000000000000000000008152600401610a689061277c565b60405180910390fd5b858873ffffffffffffffffffffffffffffffffffffffff168a73ffffffffffffffffffffffffffffffffffffffff167f91dd2cbfd54587f3aef7d0966c4185fae943cc4fe9e40877d4d7f2be4ec46e808a604051610acf91906120fd565b60405180910390a450505b50505050505050565b6007602052805f5260405f205f915090505481565b5f8311610b3a576040517f08c379a0000000000000000000000000000000000000000000000000000000008152600401610b31906127e4565b60405180910390fd5b5f73ffffffffffffffffffffffffffffffffffffffff168173ffffffffffffffffffffffffffffffffffffffff1603610ba8576040517f08c379a0000000000000000000000000000000000000000000000000000000008152600401610b9f9061284c565b60405180910390fd5b6005548203610bec576040517f08c379a0000000000000000000000000000000000000000000000000000000008152600401610be3906128b4565b60405180910390fd5b60065f9054906101000a900460ff16610c3a576040517f08c379a0000000000000000000000000000000000000000000000000000000008152600401610c319061291c565b60405180910390fd5b5f8473ffffffffffffffffffffffffffffffffffffffff16333086604051602401610c679392919061293a565b6040516020818303038152906040527f23b872dd000000000000000000000000000000000000000000000000000000007bffffffffffffffffffffffffffffffffffffffffffffffffffffffff19166020820180517bffffffffffffffffffffffffffffffffffffffffffffffffffffffff8381831617835250505050604051610cf1919061264c565b5f604051808303815f865af19150503d805f8114610d2a576040519150601f19603f3d011682016040523d82523d5f602084013e610d2f565b606091505b5050905080610d73576040517f08c379a0000000000000000000000000000000000000000000000000000000008152600401610d6a906126ac565b60405180910390fd5b8360075f8773ffffffffffffffffffffffffffffffffffffffff1673ffffffffffffffffffffffffffffffffffffffff1681526020019081526020015f205f828254610dbf919061296f565b925050819055505f60045f3373ffffffffffffffffffffffffffffffffffffffff1673ffffffffffffffffffffffffffffffffffffffff1681526020019081526020015f2054905060045f3373ffffffffffffffffffffffffffffffffffffffff1673ffffffffffffffffffffffffffffffffffffffff1681526020019081526020015f205f815480929190610e54906129a2565b91905055503373ffffffffffffffffffffffffffffffffffffffff168673ffffffffffffffffffffffffffffffffffffffff167f0e3b6efba50a82b66564e76271e9a340ad970ff461db2a0ce639902c405e59dd87878786604051610ebc94939291906129e9565b60405180910390a3505050505050565b600660019054906101000a900473ffffffffffffffffffffffffffffffffffffffff1673ffffffffffffffffffffffffffffffffffffffff163373ffffffffffffffffffffffffffffffffffffffff1614610f5c576040517f08c379a0000000000000000000000000000000000000000000000000000000008152600401610f5390612a76565b60405180910390fd5b5f73ffffffffffffffffffffffffffffffffffffffff168273ffffffffffffffffffffffffffffffffffffffff1603610fca576040517f08c379a0000000000000000000000000000000000000000000000000000000008152600401610fc190612ade565b60405180910390fd5b5f73ffffffffffffffffffffffffffffffffffffffff168173ffffffffffffffffffffffffffffffffffffffff1603611038576040517f08c379a000000000000000000000000000000000000000000000000000000000815260040161102f90612b46565b60405180910390fd5b60065f9054906101000a900460ff1615611087576040517f08c379a000000000000000000000000000000000000000000000000000000000815260040161107e90612bd4565b60405180910390fd5b8060085f8473ffffffffffffffffffffffffffffffffffffffff1673ffffffffffffffffffffffffffffffffffffffff1681526020019081526020015f205f6101000a81548173ffffffffffffffffffffffffffffffffffffffff021916908373ffffffffffffffffffffffffffffffffffffffff1602179055508073ffffffffffffffffffffffffffffffffffffffff168273ffffffffffffffffffffffffffffffffffffffff167fe55b898288359b2e1954680e5550d45cb8dd159e87139d14a676ebed62e4e29760405160405180910390a35050565b60015481565b60065f9054906101000a900460ff16156111b5576040517f08c379a00000000000000000000000000000000000000000000000000000000081526004016111ac90612bd4565b60405180910390fd5b5f60085f8773ffffffffffffffffffffffffffffffffffffffff1673ffffffffffffffffffffffffffffffffffffffff1681526020019081526020015f205f9054906101000a900473ffffffffffffffffffffffffffffffffffffffff1690508073ffffffffffffffffffffffffffffffffffffffff163373ffffffffffffffffffffffffffffffffffffffff1614611283576040517f08c379a000000000000000000000000000000000000000000000000000000000815260040161127a90612c3c565b60405180910390fd5b5f60045f8773ffffffffffffffffffffffffffffffffffffffff1673ffffffffffffffffffffffffffffffffffffffff1681526020019081526020015f2054905060045f8773ffffffffffffffffffffffffffffffffffffffff1673ffffffffffffffffffffffffffffffffffffffff1681526020019081526020015f205f815480929190611311906129a2565b91905055508573ffffffffffffffffffffffffffffffffffffffff168773ffffffffffffffffffffffffffffffffffffffff167f0e3b6efba50a82b66564e76271e9a340ad970ff461db2a0ce639902c405e59dd8787878660405161137994939291906129e9565b60405180910390a350505050505050565b600660019054906101000a900473ffffffffffffffffffffffffffffffffffffffff1673ffffffffffffffffffffffffffffffffffffffff163373ffffffffffffffffffffffffffffffffffffffff161461141a576040517f08c379a000000000000000000000000000000000000000000000000000000000815260040161141190612a76565b60405180910390fd5b5f5f8273ffffffffffffffffffffffffffffffffffffffff1673ffffffffffffffffffffffffffffffffffffffff1681526020019081526020015f205f9054906101000a900460ff166114a2576040517f08c379a000000000000000000000000000000000000000000000000000000000815260040161149990612ca4565b60405180910390fd5b60018054116114e6576040517f08c379a00000000000000000000000000000000000000000000000000000000081526004016114dd90612d0c565b60405180910390fd5b600254600180546114f791906125a0565b1015611538576040517f08c379a000000000000000000000000000000000000000000000000000000000815260040161152f90612d74565b60405180910390fd5b5f5f5f8373ffffffffffffffffffffffffffffffffffffffff1673ffffffffffffffffffffffffffffffffffffffff1681526020019081526020015f205f6101000a81548160ff02191690831515021790555060015f81548092919061159d90612d92565b91905055508073ffffffffffffffffffffffffffffffffffffffff167fe1434e25d6611e0db941968fdc97811c982ac1602e951637d206f5fdda9dd8f160405160405180910390a250565b600660019054906101000a900473ffffffffffffffffffffffffffffffffffffffff1673ffffffffffffffffffffffffffffffffffffffff163373ffffffffffffffffffffffffffffffffffffffff1614611678576040517f08c379a000000000000000000000000000000000000000000000000000000000815260040161166f90612a76565b60405180910390fd5b5f73ffffffffffffffffffffffffffffffffffffffff168173ffffffffffffffffffffffffffffffffffffffff16036116e6576040517f08c379a00000000000000000000000000000000000000000000000000000000081526004016116dd90612e03565b60405180910390fd5b5f5f8273ffffffffffffffffffffffffffffffffffffffff1673ffffffffffffffffffffffffffffffffffffffff1681526020019081526020015f205f9054906101000a900460ff161561176f576040517f08c379a000000000000000000000000000000000000000000000000000000000815260040161176690612e6b565b60405180910390fd5b6014600154106117b4576040517f08c379a00000000000000000000000000000000000000000000000000000000081526004016117ab90612ed3565b60405180910390fd5b60015f5f8373ffffffffffffffffffffffffffffffffffffffff1673ffffffffffffffffffffffffffffffffffffffff1681526020019081526020015f205f6101000a81548160ff02191690831515021790555060015f81548092919061181a906129a2565b91905055508073ffffffffffffffffffffffffffffffffffffffff167fe366c1c0452ed8eec96861e9e54141ebff23c9ec89fe27b996b45f5ec388498760405160405180910390a250565b600181565b5f60045f8373ffffffffffffffffffffffffffffffffffffffff1673ffffffffffffffffffffffffffffffffffffffff1681526020019081526020015f20549050919050565b601481565b600660019054906101000a900473ffffffffffffffffffffffffffffffffffffffff1673ffffffffffffffffffffffffffffffffffffffff163373ffffffffffffffffffffffffffffffffffffffff1614611945576040517f08c379a000000000000000000000000000000000000000000000000000000000815260040161193c90612a76565b60405180910390fd5b5f8111611987576040517f08c379a000000000000000000000000000000000000000000000000000000000815260040161197e90612f3b565b60405180910390fd5b6001548111156119cc576040517f08c379a00000000000000000000000000000000000000000000000000000000081526004016119c390612fa3565b60405180910390fd5b5f6002549050816002819055507f98d8faeedf88f6341105a65c72ee2d5ad053386b2012b676290811538b267a4f8183604051611a0a929190612fc1565b60405180910390a15050565b6004602052805f5260405f205f915090505481565b60025481565b600660019054906101000a900473ffffffffffffffffffffffffffffffffffffffff1681565b60055481565b6003602052805f5260405f205f915054906101000a900460ff1681565b60065f9054906101000a900460ff1681565b5f60075f8373ffffffffffffffffffffffffffffffffffffffff1673ffffffffffffffffffffffffffffffffffffffff1681526020019081526020015f20549050919050565b6008602052805f5260405f205f915054906101000a900473ffffffffffffffffffffffffffffffffffffffff1681565b5f60035f8381526020019081526020015f205f9054906101000a900460ff169050919050565b5f602052805f5260405f205f915054906101000a900460ff1681565b5f5f5f8373ffffffffffffffffffffffffffffffffffffffff1673ffffffffffffffffffffffffffffffffffffffff1681526020019081526020015f205f9054906101000a900460ff169050919050565b5f5f84604051602001611ba8919061303c565b6040516020818303038152906040528051906020012090505f8484905067ffffffffffffffff811115611bde57611bdd613061565b5b604051908082528060200260200182016040528015611c0c5781602001602082028036833780820191505090505b5090505f5f90505f5f90505b86869050811015611dcb575f611c9485898985818110611c3b57611c3a61308e565b5b9050602002810190611c4d91906130c7565b8080601f0160208091040260200160405190810160405280939291908181526020018383808284375f81840152601f19601f82011690508083019250505050505050611dde565b90505f5f8273ffffffffffffffffffffffffffffffffffffffff1673ffffffffffffffffffffffffffffffffffffffff1681526020019081526020015f205f9054906101000a900460ff1615611dbd575f5f90505f5f90505b84811015611d58578273ffffffffffffffffffffffffffffffffffffffff16868281518110611d1f57611d1e61308e565b5b602002602001015173ffffffffffffffffffffffffffffffffffffffff1603611d4b5760019150611d58565b8080600101915050611ced565b5080611dbb5781858581518110611d7257611d7161308e565b5b602002602001019073ffffffffffffffffffffffffffffffffffffffff16908173ffffffffffffffffffffffffffffffffffffffff16815250508380611db7906129a2565b9450505b505b508080600101915050611c18565b5060025481101593505050509392505050565b5f6041825114611e23576040517f08c379a0000000000000000000000000000000000000000000000000000000008152600401611e1a90613173565b60405180910390fd5b5f5f5f602085015192506040850151915060608501515f1a9050601b8160ff161015611e5957601b81611e56919061319d565b90505b601b8160ff161480611e6e5750601c8160ff16145b611ead576040517f08c379a0000000000000000000000000000000000000000000000000000000008152600401611ea49061321b565b60405180910390fd5b6001868285856040515f8152602001604052604051611ecf9493929190613257565b6020604051602081039080840390855afa158015611eef573d5f5f3e3d5ffd5b50505060206040510351935050505092915050565b5f5ffd5b5f5ffd5b5f73ffffffffffffffffffffffffffffffffffffffff82169050919050565b5f611f3582611f0c565b9050919050565b611f4581611f2b565b8114611f4f575f5ffd5b50565b5f81359050611f6081611f3c565b92915050565b5f819050919050565b611f7881611f66565b8114611f82575f5ffd5b50565b5f81359050611f9381611f6f565b92915050565b5f819050919050565b611fab81611f99565b8114611fb5575f5ffd5b50565b5f81359050611fc681611fa2565b92915050565b5f5ffd5b5f5ffd5b5f5ffd5b5f5f83601f840112611fed57611fec611fcc565b5b8235905067ffffffffffffffff81111561200a57612009611fd0565b5b60208301915083602082028301111561202657612025611fd4565b5b9250929050565b5f5f5f5f5f5f60a0878903121561204757612046611f04565b5b5f61205489828a01611f52565b965050602061206589828a01611f52565b955050604061207689828a01611f85565b945050606061208789828a01611fb8565b935050608087013567ffffffffffffffff8111156120a8576120a7611f08565b5b6120b489828a01611fd8565b92509250509295509295509295565b5f602082840312156120d8576120d7611f04565b5b5f6120e584828501611f52565b91505092915050565b6120f781611f66565b82525050565b5f6020820190506121105f8301846120ee565b92915050565b5f5f5f5f6080858703121561212e5761212d611f04565b5b5f61213b87828801611f52565b945050602061214c87828801611f85565b935050604061215d87828801611f85565b925050606061216e87828801611f52565b91505092959194509250565b5f5f604083850312156121905761218f611f04565b5b5f61219d85828601611f52565b92505060206121ae85828601611f52565b9150509250929050565b5f5f5f5f5f60a086880312156121d1576121d0611f04565b5b5f6121de88828901611f52565b95505060206121ef88828901611f52565b945050604061220088828901611f85565b935050606061221188828901611f85565b925050608061222288828901611f52565b9150509295509295909350565b5f6020828403121561224457612243611f04565b5b5f61225184828501611f85565b91505092915050565b61226381611f2b565b82525050565b5f60208201905061227c5f83018461225a565b92915050565b5f6020828403121561229757612296611f04565b5b5f6122a484828501611fb8565b91505092915050565b5f8115159050919050565b6122c1816122ad565b82525050565b5f6020820190506122da5f8301846122b8565b92915050565b5f82825260208201905092915050565b7f5472616e73616374696f6e20616c72656164792070726f6365737365640000005f82015250565b5f612324601d836122e0565b915061232f826122f0565b602082019050919050565b5f6020820190508181035f83015261235181612318565b9050919050565b7f496e73756666696369656e74207369676e6174757265730000000000000000005f82015250565b5f61238c6017836122e0565b915061239782612358565b602082019050919050565b5f6020820190508181035f8301526123b981612380565b9050919050565b5f8160601b9050919050565b5f6123d6826123c0565b9050919050565b5f6123e7826123cc565b9050919050565b6123ff6123fa82611f2b565b6123dd565b82525050565b5f819050919050565b61241f61241a82611f66565b612405565b82525050565b5f819050919050565b61243f61243a82611f99565b612425565b82525050565b5f61245082886123ee565b60148201915061246082876123ee565b601482019150612470828661240e565b602082019150612480828561242e565b602082019150612490828461240e565b6020820191508190509695505050505050565b7f496e76616c6964207369676e61747572657300000000000000000000000000005f82015250565b5f6124d76012836122e0565b91506124e2826124a3565b602082019050919050565b5f6020820190508181035f830152612504816124cb565b9050919050565b7f496e73756666696369656e74206c6f636b65642062616c616e636500000000005f82015250565b5f61253f601b836122e0565b915061254a8261250b565b602082019050919050565b5f6020820190508181035f83015261256c81612533565b9050919050565b7f4e487b71000000000000000000000000000000000000000000000000000000005f52601160045260245ffd5b5f6125aa82611f66565b91506125b583611f66565b92508282039050818111156125cd576125cc612573565b5b92915050565b5f6040820190506125e65f83018561225a565b6125f360208301846120ee565b9392505050565b5f81519050919050565b5f81905092915050565b8281835e5f83830152505050565b5f612626826125fa565b6126308185612604565b935061264081856020860161260e565b80840191505092915050565b5f612657828461261c565b915081905092915050565b7f546f6b656e207472616e73666572206661696c656400000000000000000000005f82015250565b5f6126966015836122e0565b91506126a182612662565b602082019050919050565b5f6020820190508181035f8301526126c38161268a565b9050919050565b7f5772617070656420746f6b656e206e6f7420666f756e640000000000000000005f82015250565b5f6126fe6017836122e0565b9150612709826126ca565b602082019050919050565b5f6020820190508181035f83015261272b816126f2565b9050919050565b7f546f6b656e206d696e74206661696c65640000000000000000000000000000005f82015250565b5f6127666011836122e0565b915061277182612732565b602082019050919050565b5f6020820190508181035f8301526127938161275a565b9050919050565b7f416d6f756e74206d7573742062652067726561746572207468616e20300000005f82015250565b5f6127ce601d836122e0565b91506127d98261279a565b602082019050919050565b5f6020820190508181035f8301526127fb816127c2565b9050919050565b7f496e76616c69642064657374696e6174696f6e206164647265737300000000005f82015250565b5f612836601b836122e0565b915061284182612802565b602082019050919050565b5f6020820190508181035f8301526128638161282a565b9050919050565b7f43616e6e6f742062726964676520746f2073616d6520636861696e00000000005f82015250565b5f61289e601b836122e0565b91506128a98261286a565b602082019050919050565b5f6020820190508181035f8301526128cb81612892565b9050919050565b7f4f6e6c7920617661696c61626c65206f6e206f726967696e20636861696e00005f82015250565b5f612906601e836122e0565b9150612911826128d2565b602082019050919050565b5f6020820190508181035f830152612933816128fa565b9050919050565b5f60608201905061294d5f83018661225a565b61295a602083018561225a565b61296760408301846120ee565b949350505050565b5f61297982611f66565b915061298483611f66565b925082820190508082111561299c5761299b612573565b5b92915050565b5f6129ac82611f66565b91507fffffffffffffffffffffffffffffffffffffffffffffffffffffffffffffffff82036129de576129dd612573565b5b600182019050919050565b5f6080820190506129fc5f8301876120ee565b612a0960208301866120ee565b612a16604083018561225a565b612a2360608301846120ee565b95945050505050565b7f4e6f74206f776e657200000000000000000000000000000000000000000000005f82015250565b5f612a606009836122e0565b9150612a6b82612a2c565b602082019050919050565b5f6020820190508181035f830152612a8d81612a54565b9050919050565b7f496e76616c6964206f726967696e616c20746f6b656e206164647265737300005f82015250565b5f612ac8601e836122e0565b9150612ad382612a94565b602082019050919050565b5f6020820190508181035f830152612af581612abc565b9050919050565b7f496e76616c6964207772617070656420746f6b656e20616464726573730000005f82015250565b5f612b30601d836122e0565b9150612b3b82612afc565b602082019050919050565b5f6020820190508181035f830152612b5d81612b24565b9050919050565b7f4f6e6c7920617661696c61626c65206f6e2064657374696e6174696f6e2063685f8201527f61696e0000000000000000000000000000000000000000000000000000000000602082015250565b5f612bbe6023836122e0565b9150612bc982612b64565b604082019050919050565b5f6020820190508181035f830152612beb81612bb2565b9050919050565b7f4f6e6c79207772617070656420746f6b656e2063616e2063616c6c20746869735f82015250565b5f612c266020836122e0565b9150612c3182612bf2565b602082019050919050565b5f6020820190508181035f830152612c5381612c1a565b9050919050565b7f56616c696461746f7220646f6573206e6f7420657869737400000000000000005f82015250565b5f612c8e6018836122e0565b9150612c9982612c5a565b602082019050919050565b5f6020820190508181035f830152612cbb81612c82565b9050919050565b7f43616e6e6f742072656d6f7665206c6173742076616c696461746f72000000005f82015250565b5f612cf6601c836122e0565b9150612d0182612cc2565b602082019050919050565b5f6020820190508181035f830152612d2381612cea565b9050919050565b7f576f756c6420627265616b207265717569726564207369676e617475726573005f82015250565b5f612d5e601f836122e0565b9150612d6982612d2a565b602082019050919050565b5f6020820190508181035f830152612d8b81612d52565b9050919050565b5f612d9c82611f66565b91505f8203612dae57612dad612573565b5b600182039050919050565b7f496e76616c69642076616c696461746f722061646472657373000000000000005f82015250565b5f612ded6019836122e0565b9150612df882612db9565b602082019050919050565b5f6020820190508181035f830152612e1a81612de1565b9050919050565b7f56616c696461746f7220616c72656164792065786973747300000000000000005f82015250565b5f612e556018836122e0565b9150612e6082612e21565b602082019050919050565b5f6020820190508181035f830152612e8281612e49565b9050919050565b7f546f6f206d616e792076616c696461746f7273000000000000000000000000005f82015250565b5f612ebd6013836122e0565b9150612ec882612e89565b602082019050919050565b5f6020820190508181035f830152612eea81612eb1565b9050919050565b7f5265717569726564207369676e617475726573206d757374206265203e2030005f82015250565b5f612f25601f836122e0565b9150612f3082612ef1565b602082019050919050565b5f6020820190508181035f830152612f5281612f19565b9050919050565b7f5265717569726564207369676e61747572657320746f6f2068696768000000005f82015250565b5f612f8d601c836122e0565b9150612f9882612f59565b602082019050919050565b5f6020820190508181035f830152612fba81612f81565b9050919050565b5f604082019050612fd45f8301856120ee565b612fe160208301846120ee565b9392505050565b5f81905092915050565b7f19457468657265756d205369676e6564204d6573736167653a0a3332000000005f82015250565b5f613026601c83612fe8565b915061303182612ff2565b601c82019050919050565b5f6130468261301a565b9150613052828461242e565b60208201915081905092915050565b7f4e487b71000000000000000000000000000000000000000000000000000000005f52604160045260245ffd5b7f4e487b71000000000000000000000000000000000000000000000000000000005f52603260045260245ffd5b5f5ffd5b5f5ffd5b5f5ffd5b5f5f833560016020038436030381126130e3576130e26130bb565b5b80840192508235915067ffffffffffffffff821115613105576131046130bf565b5b602083019250600182023603831315613121576131206130c3565b5b509250929050565b7f496e76616c6964207369676e6174757265206c656e67746800000000000000005f82015250565b5f61315d6018836122e0565b915061316882613129565b602082019050919050565b5f6020820190508181035f83015261318a81613151565b9050919050565b5f60ff82169050919050565b5f6131a782613191565b91506131b283613191565b9250828201905060ff8111156131cb576131ca612573565b5b92915050565b7f496e76616c6964207369676e617475726520762076616c7565000000000000005f82015250565b5f6132056019836122e0565b9150613210826131d1565b602082019050919050565b5f6020820190508181035f830152613232816131f9565b9050919050565b61324281611f99565b82525050565b61325181613191565b82525050565b5f60808201905061326a5f830187613239565b6132776020830186613248565b6132846040830185613239565b6132916060830184613239565b9594505050505056fea26469706673582212202534d2f46cc964e9aac224052aea1a360cf4965aec93f62951d49e4625fdd36e64736f6c634300081e0033","linkReferences":{}},"methodIdentifiers":{"MAX_VALIDATORS()":"714897df","MIN_VALIDATORS()":"5ed1f963","addValidator(address)":"4d238c8e","chainId()":"9a8a0592","completeBridgeTransfer(address,address,uint256,bytes32,bytes[])":"0354aa6b","getLockedBalance(address)":"c4086893","getUserNonce(address)":"6834e3a8","handleBurn(address,address,uint256,uint256,address)":"1ee0a6ed","isOriginChain()":"b61e1014","isTransactionProcessed(bytes32)":"efc646ca","isValidator(address)":"facd743b","lockTokens(address,uint256,uint256,address)":"0aa393f3","lockedBalances(address)":"0483a7f6","nonces(address)":"7ecebe00","owner()":"8da5cb5b","processedTransactions(bytes32)":"ac2e4936","removeValidator(address)":"40a141ff","requiredSignatures()":"8d068043","setRequiredSignatures(uint256)":"7d2b9cc0","setWrappedToken(address,address)":"0c1973d6","validatorCount()":"0f43a677","validators(address)":"fa52c7d8","wrappedTokens(address)":"d5c6b504"},"id":26}